:100000000C9462000C948A000C948A000C948A0070
:100010000C948A000C948A000C948A000C948A0038
:100020000C948A000C948A000C948A000C948A0028
:100030000C948A000C948A000C948A000C948A0018
:100040000C943E050C948A000C94AE050C94880523
:100050000C948A000C948A000C948A000C948A00F8
:100060000C948A000C948A000000000024002700F1
:100070002A0000000000250028002B0000000000DE
:1000800023002600290004040404040404040202DA
:100090000202020203030303030301020408102007
:1000A0004080010204081020010204081020000012
:1000B0000008000201000003040700000000000027
:1000C0000000E00511241FBECFEFD8E0DEBFCDBF9A
:1000D00011E0A0E0B1E0EAE9F5E102C005900D927F
:1000E000AA3FB107D9F723E0AAEFB1E001C01D9202
:1000F000A033B207E1F710E0C2E6D0E004C02197D8
:10010000FE010E94C00AC136D107C9F70E949806B5
:100110000C94CB0A0C94000096E0899FD001112426
:10012000AF53BD4F90967C936E935F9791E09196FD
:100130009C93919790912D03E0912E03F0912F03C2
:10014000992339F0309751F0811108C08091DD0278
:1001500004C0309719F05C968C9109940895CF9261
:10016000DF92EF92FF920F931F9396E0899FF00129
:100170001124EF53FD4F11A2278D30A121303105FD
:1001800039F158F02230310509F447C023303105E8
:1001900009F04FC060E070E044C0662309F449C034
:1001A00061E070E00E948C002FB7F8948091080203
:1001B00090910902A0910A02B0910B022FBF809387
:1001C000190390931A03A0931B03B0931C0331C02F
:1001D0009FB7F894C0900802D0900902E0900A02FC
:1001E000F0900B029FBF0091190310911A03209108
:1001F0001B0330911C03C01AD10AE20AF30A0091D2
:100200002B0310912C0320E030E00C151D052E056A
:100210003F0518F462E070E004C061110AC063E0B9
:1002200070E01F910F91FF90EF90DF90CF900C94B2
:100230008C001F910F91FF90EF90DF90CF90089569
:10024000FC01538D448D252F30E0842F90E0821BDC
:10025000930B541710F0CF96089501970895FC0161
:10026000918D828D981761F0828DDF01A80FB11DED
:100270005D968C91928D9F5F9F73928F90E0089511
:100280008FEF9FEF0895FC01918D828D981731F0CB
:10029000828DE80FF11D858D90E008958FEF9FEF1F
:1002A0000895FC01918D228D892F90E0805C9F4FF5
:1002B000821B91098F7399270895FC01848DDF01BA
:1002C000A80FB11DA35ABF4F2C91848D90E00196C9
:1002D0008F739927848FA689B7892C93A089B189B8
:1002E0008C91837080648C93938D848D981306C059
:1002F0000288F389E02D80818F7D80830895EF92BD
:10030000FF920F931F93CF93DF93EC0181E0888FCF
:100310009B8D8C8D981305C0E889F989808185FDB6
:1003200026C0F62E0B8D10E00F5F1F4F0F731127A5
:10033000E02E8C8DE8120CC00FB607FCFACFE889CE
:10034000F989808185FFF5CFCE010E945D01F1CF53
:100350008B8DFE01E80FF11DE35AFF4FF0829FB72E
:10036000F8940B8FEA89FB89808180620AC09FB76D
:10037000F894EE89FF896083E889F9898081837028
:10038000806480839FBF81E090E0DF91CF911F91D7
:100390000F91FF90EF900895CF93DF93EC01888D3C
:1003A0008823C9F0EA89FB89808185FD05C0A88979
:1003B000B9898C9186FD0FC00FB607FCF5CF8081FF
:1003C00085FFF2CFA889B9898C9185FFEDCFCE0149
:1003D0000E945D01E7CFDF91CF9108958CE092E01C
:1003E0000E94510121E0892B09F420E0822F089519
:1003F00080E090E0892B29F00E94EE0181110C949D
:1004000000000895833081F028F4813099F0823023
:10041000A1F008958730A9F08830B9F08430D1F484
:10042000809180008F7D03C0809180008F778093C2
:100430008000089584B58F7702C084B58F7D84BD18
:1004400008958091B0008F7703C08091B0008F7DB8
:100450008093B0000895CF93DF93282F30E0F90107
:10046000E255FF4F8491F901E656FF4FD491F9010F
:10047000EA57FF4FC491CC2391F081110E940202F0
:10048000EC2FF0E0EE0FFF1FE458FF4FA591B49161
:10049000EC91ED2381E090E021F480E002C080E067
:1004A00090E0DF91CF9108951F93CF93DF93282F92
:1004B00030E0F901E255FF4F8491F901E656FF4F14
:1004C000D491F901EA57FF4FC491CC23C1F0162F04
:1004D00081110E940202EC2FF0E0EE0FFF1FEE5898
:1004E000FF4FA591B4919FB7F894111104C08C915E
:1004F000D095D82302C0EC91DE2BDC939FBFDF9117
:10050000CF911F910895CF93DF9390E0FC01E656C1
:10051000FF4F2491FC01EA57FF4F8491882361F13A
:1005200090E0880F991FFC01E859FF4FC591D491C5
:10053000FC01EE58FF4FA591B491611109C09FB71E
:10054000F8948881209582238883EC912E230BC018
:10055000623061F49FB7F8948881322F30958323FD
:100560008883EC912E2B2C939FBF06C08FB7F894F5
:10057000E8812E2B28838FBFDF91CF9108953FB75D
:10058000F8948091040290910502A0910602B09126
:10059000070226B5A89B05C02F3F19F00196A11DA3
:1005A000B11D3FBFBA2FA92F982F8827820F911D09
:1005B000A11DB11DBC01CD0142E0660F771F881F50
:1005C000991F4A95D1F708958F929F92AF92BF924B
:1005D000CF92DF92EF92FF926B017C010E94BF02EB
:1005E0004B015C01C114D104E104F104F1F00E945B
:1005F000BF02DC01CB0188199909AA09BB09883E11
:100600009340A105B10570F321E0C21AD108E108B9
:10061000F10888EE880E83E0981EA11CB11CC1145D
:10062000D104E104F10419F7DDCFFF90EF90DF90E2
:10063000CF90BF90AF909F908F900895862F642F9A
:100640000C948302862F642F0C945402862F0C94F2
:100650002B02CF92DF92EF92FF920F931F93CF93D3
:10066000DF936C017A018B01C0E0D0E0CE15DF058D
:1006700081F0D8016D918D01D601ED91FC91019031
:10068000F081E02DC6010995892B11F02196EECF5E
:100690007E01C701DF91CF911F910F91FF90EF90E5
:1006A000DF90CF900895CF93DF93EC0160E08E81CF
:1006B0000E94540261E08E810E94540260E08E81AB
:1006C0000E9454028BE891E00197F1F7DF91CF91FE
:1006D0000895CF92DF92EF92FF920F931F93CF93E3
:1006E000DF936C017C0187E0E80EF11CC0E0D0E0F4
:1006F000062F10E0B8010C2E02C0759567950A947C
:10070000E2F76170F70181917F010E945402219606
:10071000C430D10579F7C601DF91CF911F910F91B8
:10072000FF90EF90DF90CF900C945303CF92DF9225
:10073000EF92FF920F931F93CF93DF93EC01F62E6E
:10074000642F8C810E9454028D818F3F19F060E0EC
:100750000E9454028F850F2D10E084FF25C06E018A
:1007600087E0C80ED11CE12CF12CB8010E2C02C080
:10077000759567950A94E2F76170F60181916F01B2
:100780000E945402FFEFEF1AFF0A88E0E816F10416
:1007900061F7CE01DF91CF911F910F91FF90EF9004
:1007A000DF90CF900C945303B80184E07595679562
:1007B0008A95E1F7CE010E9469036F2DCE01DF918A
:1007C000CF911F910F91FF90EF90DF90CF900C94FD
:1007D000690340E0682F89EA92E00C94960381E077
:1007E0000E94E9038BE39FE10197F1F70895CF930E
:1007F000DF93823028F09091B80298609093B8020D
:100800008093BC021092BD0280E48093BE0280E11E
:100810008093BF0280E58093C00261E08091AD02C9
:100820000E9483028091AE028F3F19F061E00E9426
:10083000830261E08091AF020E948302C9EAD2E0A4
:100840009E01295A32408091B80284FD03C084E0A1
:1008500090E002C088E090E02196281739072CF438
:1008600061E08E810E948302EBCF8BE39DE00197D4
:10087000F1F760E08091AD020E94540260E0809147
:10088000AF020E9454028091AE028F3F19F060E0E7
:100890000E9454028091B80284FD20C063E089EA7E
:1008A00092E00E946903CBE4D6E4CE010197F1F710
:1008B00063E089EA92E00E9469032197F1F763E01F
:1008C00089EA92E00E94690383E592E00197F1F7DB
:1008D00062E089EA92E00E94690315C080620E948A
:1008E000E9038BE496E40197F1F78091B802806206
:1008F0000E94E90383E592E00197F1F78091B80245
:1009000080620E94E9038091B80280620E94E9033C
:1009100084E08093B9028CE00E94E9030E94EF0317
:1009200082E08093BA0286E0DF91CF910C94E903D4
:1009300041E00E94960381E090E00895089580E0F0
:1009400090E008950E94C60A6115710579F0FB01D7
:1009500001900020E9F73197AF01461B570BDC01EE
:10096000ED91FC910280F381E02D099480E090E00C
:100970000895CF93DF93BC018CE092E00E94A40421
:10098000EC0160E471E08CE092E00E94A4048C0F22
:100990009D1FDF91CF9108958F929F92AF92BF924A
:1009A000CF92DF92EF92FF92CF93DF93CDB7DEB776
:1009B000A1970FB6F894DEBF0FBECDBF6B017C01CF
:1009C00097FF2CC041E06DE289EA92E00E94960315
:1009D00022273327A9012C193D094E095F0919A2C5
:1009E000CE0181967C019AE0892E912CA12CB12C0C
:1009F000CA01B901A50194010E948A0A605DF7014C
:100A000062937F01211531054105510589F7BF0129
:100A100089EA92E00E94A40401961FC09B01AC01E8
:100A200019A2CE0181967C018AE0882E912CA12CFE
:100A3000B12CCA01B901A50194010E948A0A605D26
:100A4000F70162937F01211531054105510589F7B1
:100A5000BF0189EA92E00E94A404A1960FB6F8941F
:100A6000DEBF0FBECDBFDF91CF91FF90EF90DF9043
:100A7000CF90BF90AF909F908F9008951F920F924C
:100A80000FB60F9211242F933F938F939F93AF93A1
:100A9000BF938091080290910902A0910A02B0913F
:100AA0000B023091030223E0230F2D3720F401962F
:100AB000A11DB11D05C026E8230F0296A11DB11D81
:100AC000209303028093080290930902A0930A02E4
:100AD000B0930B028091040290910502A09106024E
:100AE000B09107020196A11DB11D8093040290935D
:100AF0000502A0930602B0930702BF91AF919F91A8
:100B00008F913F912F910F900FBE0F901F901895CE
:100B10001F920F920FB60F9211242F933F934F9372
:100B20005F936F937F938F939F93AF93BF93EF9355
:100B3000FF938CE092E00E945D01FF91EF91BF91E5
:100B4000AF919F918F917F916F915F914F913F9165
:100B50002F910F900FBE0F901F9018951F920F921C
:100B60000FB60F9211242F938F939F93EF93FF93C0
:100B7000E0911C02F0911D028081E0912202F0912F
:100B8000230282FD12C09081809125028F5F8F73B6
:100B900020912602821751F0E0912502F0E0E45FF7
:100BA000FD4F958F8093250201C08081FF91EF91C9
:100BB0009F918F912F910F900FBE0F901F901895BE
:100BC00010920F0210920E0288EE93E0A0E0B0E0C7
:100BD0008093100290931102A0931202B09313021B
:100BE0008CE191E090930D0280930C0285EC90E0F3
:100BF000909319028093180284EC90E090931B026A
:100C000080931A0280EC90E090931D0280931C0266
:100C100081EC90E090931F0280931E0282EC90E0A2
:100C2000909321028093200286EC90E0909323021F
:100C3000809322021092250210922602109227021F
:100C4000109228021092C3021092C7021092C6029C
:100C50001092C8028AE391E09093C2028093C1028D
:100C6000E1ECF2E0148E10A2178E11A2369682E00B
:100C7000ED3FF807B9F784E091E090932403809367
:100C8000230380E091E0909326038093250384E082
:100C9000809327038093280388E091E090932203B8
:100CA000809321038AE090E090932A0380932903A4
:100CB00084EF91E090932C0380932B0310922F03E9
:100CC00010922E0310921D0310921E0310921F0308
:100CD0001092200310922D031092AC021092AB02DE
:100CE0008EE291E09093AA028093A90289E080931A
:100CF000AD028FEF8093AE0288E08093AF028DE06B
:100D00008093B0028CE08093B1028BE08093B202BA
:100D10008AE08093B3021092B4021092B50210924E
:100D2000B6021092B7021092B80281E00C94F70359
:100D3000789484B5826084BD84B5816084BD85B5B6
:100D4000826085BD85B5816085BD80916E008160C2
:100D500080936E0010928100809181008260809368
:100D6000810080918100816080938100809180006A
:100D70008160809380008091B10084608093B10095
:100D80008091B00081608093B00080917A0084608F
:100D900080937A0080917A00826080937A008091BB
:100DA0007A00816080937A0080917A0080688093D5
:100DB0007A001092C10082E00E94F70363E471E0C0
:100DC00089EA92E00E94A404E091BC02E23010F4AF
:100DD000E15001C0E1E0F0E0E755FD4F8489806813
:100DE0000E94E9036BE471E089EA92E00E94A404A6
:100DF00068EE73E080E090E00E94E4020E94EF035E
:100E0000812C912C540183945DEF452E52E0552E98
:100E100022242394312C81E080932D038FB7F89402
:100E2000409108025091090260910A0270910B02F0
:100E30008FBF80911D0390911E03A0911F03B0915D
:100E40002003481B590B6A0B7B0B8091290390915F
:100E50002A03A0E0B0E084179507A607B70708F0BB
:100E6000E4C0C0E080912703C81710F0712C40C087
:100E7000E0912303F0912403EC0FF11D62E08081E7
:100E80000E948302CF5FEECFC62DD0E0E091230316
:100E9000F0912403EC0FFD1F80810E942B02249609
:100EA000CC0FDD1FCF53DD4F892B09F04BC088815C
:100EB00099818C299D299983888363948091270344
:100EC000681610F3E0912503F0912603E00FF11F5F
:100ED00061E080810E945402809125039091260355
:100EE000FC01E00FF11F60E080810E948302739497
:100EF00080912803781658F5072D10E0E09125031E
:100F0000F0912603E00FF11F61E080810E948302CF
:100F1000E0912503F0912603E00FF11F60E080814E
:100F20000E945402D501C401072C04C0880F991FE8
:100F3000AA1FBB1F0A94D2F76C017C01E094F094C5
:100F4000612CBCCF888199818E219F21B4CFC1ECC7
:100F5000D2E0FE01878D90A1892B31F4148E2FEF02
:100F60003FEF368F258F11A236964E165F0691F70A
:100F700010E080912703181770F500E0E12EF12CA6
:100F8000C701880F991FFC01E753FD4F7F01209196
:100F900028030217F0F4F70140815181002E02C0AE
:100FA000569547950A94E2F7642F6170129F90015D
:100FB0001124200F311DE1ECF2E080E0A58DB68D0B
:100FC0002A173B0709F488C28F5F36968A30B1F73B
:100FD00066C21F5FCECF80E099A1911181E0269675
:100FE0004C165D06C9F79FB7F894409108025091DE
:100FF000090260910A0270910B029FBF40931D038A
:1010000050931E0360931F0370932003882369F09D
:101010008091E202882349F08091E0029091E10200
:10102000019719F4C091DD0203C010922D03C0E0B6
:10103000C0930202CC2309F494C10E94EF03C3348D
:1010400091F486E591E00E94B9041092FD0110929E
:10105000FC01109200021092FF011092FB0110920D
:10106000FA0110920102809102028133D9F484E6E0
:1010700091E00E94B9042091FA013091FB01211501
:10108000310529F43092FB012092FA010BC04AE0AD
:10109000429FC001439F900D112401969093FB0144
:1010A0008093FA01809102028433C9F48DE691E0C5
:1010B0000E94B9042091FA013091FB0121153105FC
:1010C00019F484E090E007C04AE0429FC001439FCA
:1010D000900D112404969093FB018093FA01809166
:1010E00002028733C9F486E791E00E94B904209197
:1010F000FA013091FB012115310519F487E090E0E8
:1011000007C04AE0429FC001439F900D11240796FB
:101110009093FB018093FA01809102028033A1F445
:101120008FE791E00E94B9048091FA019091FB0150
:10113000009751F04AE0489F9001499F300D1124DB
:101140003093FB012093FA01809102028233C9F4AB
:1011500088E891E00E94B9042091FA013091FB01E6
:101160002115310519F482E090E007C04AE0429F62
:10117000C001439F900D112402969093FB01809330
:10118000FA01809102028533C9F481E991E00E945D
:10119000B9042091FA013091FB012115310519F4B0
:1011A00085E090E007C04AE0429FC001439F900D58
:1011B000112405969093FB018093FA01809102021D
:1011C0008833E9F48AE991E00E94B9042091FA0198
:1011D0003091FB012115310539F4E8E0F0E0F0939E
:1011E000FB01E093FA010BC04AE0429FC001439F1C
:1011F000900D112408969093FB018093FA01809141
:1012000002028D3379F483EA91E00E94B90480915F
:10121000FA019091FB019093FD018093FC0181E024
:1012200080930102809102028333D9F480EB91E034
:101230000E94B9042091FA013091FB01211531057A
:1012400029F43092FB012092FA010BC04AE0429F40
:10125000C001439F900D112403969093FB0180934E
:10126000FA01809102028633E9F489EB91E00E9451
:10127000B9042091FA013091FB012115310539F4AF
:1012800026E030E03093FB012093FA010BC04AE0E6
:10129000429FC001439F900D112406969093FB013D
:1012A0008093FA01809102028933C9F482EC91E0C3
:1012B0000E94B9042091FA013091FB0121153105FA
:1012C00019F489E090E007C04AE0429FC001439FC3
:1012D000900D112409969093FB018093FA01C0911F
:1012E00002028C2F8D7F8D3221F086ED8C0F8230A3
:1012F000C0F58091FA019091FB01909300028093D8
:10130000FF011092FB011092FA01CB3231F48BEC09
:1013100091E00E94B904C093FE01C0910202CD3257
:1013200031F484ED91E00E94B904C093FE01C091B4
:101330000202CA3231F480EE91E00E94B904C093F7
:10134000FE01C0910202CF3231F48FEE91E00E9493
:10135000B904C093FE0164E670E080E090E00E9472
:10136000E40280910102882309F442C08091FE01C9
:101370008B3259F42091FF01309100028091FC01E1
:101380009091FD01820F931F0CC08D3279F48091F2
:10139000FF01909100022091FC013091FD01821B20
:1013A000930B9093FB018093FA0122C08A3281F45F
:1013B0004091FF01509100022091FC013091FD010C
:1013C000429FC001439F900D529F900D1124E9CF81
:1013D0008F3271F48091FF01909100026091FC01C5
:1013E0007091FD010E94760A7093FB016093FA01EF
:1013F000E1E08091BC028111E0E0E195F0E0E75589
:10140000FD4F848980680E94E9036091FF0170911B
:101410000002072E000C880B990B0E94CC0441E0BF
:101420006091FE0189EA92E00E9496036091FC01BE
:101430007091FD01072E000C880B990B0E94CC04C3
:1014400080910102882381F068EF71E089EA92E0DF
:101450000E94A4046091FA017091FB01072E000C18
:10146000880B990B0E94CC04E091BC02E23010F48E
:10147000E15001C0E1E0F0E0E755FD4F848980686C
:101480000E94E9036091FA017091FB01072E000CA4
:10149000880B990B0E94CC040E94F801BCCC40FF41
:1014A0001DC0E1ECF2E080E090E0448D411118C0F5
:1014B000E0912103F0912203E20FF31F408156E0F7
:1014C000589FF001599FF00D1124EF53FD4F448FA9
:1014D000368F258F10A2178E0E94AF000F5F57CD59
:1014E000019636968A30910501F7F8CF97FB072EC3
:1014F00016F4009407D077FD09D00E94AC0A07FCCF
:1015000005D03EF4909581959F4F08957095619513
:101510007F4F0895A1E21A2EAA1BBB1BFD010DC02F
:10152000AA1FBB1FEE1FFF1FA217B307E407F50793
:1015300020F0A21BB30BE40BF50B661F771F881F6F
:10154000991F1A9469F760957095809590959B0105
:10155000AC01BD01CF010895AA1BBB1B51E107C01F
:10156000AA1FBB1FA617B70710F0A61BB70B881F33
:10157000991F5A95A9F780959095BC01CD010895C2
:10158000EE0FFF1F0590F491E02D099481E090E0AB
:0A159000F8940C94CB0AF894FFCFF6
:10159A0003020100070605043738392F3435362A85
:1015AA003132332D43303D2B000000007F012903E7
:1015BA002001CC0151012F014301000000009804D1
:1015CA0029039F049E04000000001E032203260331
:1015DA000D0A0061726475696E6F0063616C6375F0
:1015EA006C61746F7200427574746F6E2043616E21
:1015FA00636C6500427574746F6E203100427574B5
:10160A00746F6E203400427574746F6E2037004216
:10161A007574746F6E203000427574746F6E203268
:10162A0000427574746F6E203500427574746F6E63
:10163A00203800427574746F6E20657175616C0094
:10164A00427574746F6E203300427574746F6E2025
:10165A003600427574746F6E20390041646469748F
:10166A00696F6E005375627472616374696F6E009C
:10167A004D756C7469706C69636174696F6E00642E
:0A168A0069766973696F6E003D0018
:107E0000112484B714BE81FFF0D085E080938100F7
:107E100082E08093C00088E18093C10086E0809377
:107E2000C20080E18093C4008EE0C9D0259A86E02C
:107E300020E33CEF91E0309385002093840096BBD3
:107E4000B09BFECF1D9AA8958150A9F7CC24DD24C4
:107E500088248394B5E0AB2EA1E19A2EF3E0BF2EE7
:107E6000A2D0813461F49FD0082FAFD0023811F036
:107E7000013811F484E001C083E08DD089C08234E0
:107E800011F484E103C0853419F485E0A6D080C0E4
:107E9000853579F488D0E82EFF2485D0082F10E0AE
:107EA000102F00270E291F29000F111F8ED06801E7
:107EB0006FC0863521F484E090D080E0DECF843638
:107EC00009F040C070D06FD0082F6DD080E0C81688
:107ED00080E7D80618F4F601B7BEE895C0E0D1E017
:107EE00062D089930C17E1F7F0E0CF16F0E7DF06D8
:107EF00018F0F601B7BEE89568D007B600FCFDCFD4
:107F0000A601A0E0B1E02C9130E011968C91119780
:107F100090E0982F8827822B932B1296FA010C0160
:107F200087BEE89511244E5F5F4FF1E0A038BF0790
:107F300051F7F601A7BEE89507B600FCFDCF97BE46
:107F4000E89526C08437B1F42ED02DD0F82E2BD052
:107F50003CD0F601EF2C8F010F5F1F4F84911BD097
:107F6000EA94F801C1F70894C11CD11CFA94CF0C13
:107F7000D11C0EC0853739F428D08EE10CD085E9AC
:107F80000AD08FE07ACF813511F488E018D01DD067
:107F900080E101D065CF982F8091C00085FFFCCF94
:107FA0009093C60008958091C00087FFFCCF809118
:107FB000C00084FD01C0A8958091C6000895E0E648
:107FC000F0E098E1908380830895EDDF803219F02E
:107FD00088E0F5DFFFCF84E1DECF1F93182FE3DFCA
:107FE0001150E9F7F2DF1F91089580E0E8DFEE27F6
:047FF000FF270994CA
:027FFE00040479
:0400000300007E007B
:00000001FF
